:100000000C9446000C9463000C9463000C94630001
:100010000C9463000C9463000C9463000C946300D4
:100020000C9463000C9463000C9463000C946300C4
:100030000C9463000C9463000C9463000C946300B4
:100040000C9463000C9463000C9465000C946300A2
:100050000C9463000C9463000C9463000C94630094
:100060000C9463000C9463000D0A002020002020F3
:1000700020000D0A0020200041565220696E69744C
:1000800020636F6D706C6574650D0A0011241FBECE
:10009000CFEFD4E0DEBFCDBF11E0A0E0B1E0E2E6FB
:1000A000F4E002C005900D92AC31B107D9F711E030
:1000B000ACE1B1E001C01D92A235B107E1F70E94A9
:1000C0000A020C942F020C9400001F920F920FB69C
:1000D0000F9211242F933F938F939F93EF93FF934E
:1000E00020914E0130914F0180915001909151012A
:1000F000281B390B37FF02C02E5C3F4F21333105DF
:10010000F4F4E0914E01F0914F018091C60080839C
:1001100080914E0190914F01019690934F018093F1
:100120004E0180914E0190914F0121E08E34920753
:1001300041F4C29790934F0180934E0102C0809189
:10014000C600FF91EF919F918F913F912F910F905A
:100150000FBE0F901F9018951092C5008CE08093F1
:10016000C40088E98093C10086E08093C20080E8E3
:100170008093C0008CE191E09093510180935001F5
:10018000809150019091510190934F0180934E01C5
:100190000895982F8091C00085FFFCCF9093C600F2
:1001A0000895FC0107C08091C00085FFFCCF319607
:1001B0009093C60090819923B1F70895FC0107C080
:1001C0008091C00085FFFCCF9093C600319694913A
:1001D0009923B1F70895AF92BF92CF92DF92EF9239
:1001E000FF920F931F93DF93CF93CDB7DEB7659741
:1001F0000FB6F894DEBF0FBECDBF7C018B01DE01D0
:100200001596E0E0F1E081E101900D928150E1F777
:100210008091110190911201A0911301B0911401EC
:1002200089839A83AB83BC8385E0C82ED12CCC0E06
:10023000DD1E5E010894A11CB11C14C0F701919150
:100240007F01892F82958F70F601E80FF11D808163
:1002500089839F70F601E90FF11D80818A83C501B2
:100260000E94D10001501040FFEF0F3F1F0731F7F0
:1002700065960FB6F894DEBF0FBECDBFCF91DF916C
:100280001F910F91FF90EF90DF90CF90BF90AF90B4
:100290000895FC012EE213C09081892F805281368F
:1002A00038F48091C00085FFFCCF9093C60006C053
:1002B0008091C00085FFFCCF2093C600319661502D
:1002C00070408FEF6F3F780739F70895DF92EF9214
:1002D000FF920F931F93CF93DF938C017B0118C084
:1002E000C80160E170E00E94EB0085E790E00E94A9
:1002F000DE00C80160E170E00E94490182E790E001
:100300000E94DE0080EF9FEFE80EF91E005F1F4F96
:1003100091E1E916F10424F7C801B7010E94EB004E
:10032000DD24C0E1D0E0CE19DF0905C08EE690E003
:100330000E94DE00D3948D2D90E08C179D07B4F3BE
:100340008BE690E00E94DE00C801B7010E944901DF
:1003500088E690E00E94DE00DF91CF911F910F911F
:10036000FF90EF90DF90089520914E0130914F0162
:10037000809150019091510128173907A9F3E0911C
:100380005001F0915101E081809150019091510113
:10039000019690935101809350018091500190916A
:1003A000510121E08E34920729F4C29790935101B4
:1003B000809350018E2F0895DC0120914E013091E1
:1003C0004F0180915001909151012817390711F484
:1003D00080E00895E0915001F091510180818C936B
:1003E0008091500190915101019690935101809319
:1003F0005001809150019091510121E08E3492077B
:1004000011F081E00895C2979093510180935001BB
:1004100081E008951F93CF93DF93399A389A419AD8
:10042000409A0E94AC0088E790E00E94DE0020ED38
:1004300037E011E0C8ECD0E005C0CE010197F1F73C
:100440002150304021153105C1F788B1812788B985
:1004500085E191E00E94D10020ED37E0EECFF894E5
:02046000FFCFCC
:1004620030313233343536373839414243444546E8
:0C0472000058582000466F6F0D0A000073
:00000001FF
