:100000000C94A4000C943D030C94C1000C94C1000A
:100010000C94C1000C94C1000C94C1000C94C1005C
:100020000C94C1000C94C1000C94C1000C94C1004C
:100030000C94C1000C94C1000C94C1000C94C1003C
:100040000C94C1000C94C1000C94C3000C94C1002A
:100050000C94C1000C94C1000C94C1000C94C1001C
:100060000C94C1000C94C1000D0A00202000202037
:1000700020000D0A002020003F3F3F3F3F3F3F3F11
:100080003F3F3F3F3F3F3F3F3F0D0A0052464D310C
:10009000325F54585F454E5155455545440D0A0051
:1000A00052464D31325F54585F4F43435550494596
:1000B000440D0A0052464D31325F54585F4552524A
:1000C0004F520D0A0052464D31322054582053747D
:1000D00061747573203A0D0A003F3F3F3F3F3F3F39
:1000E0003F3F3F3F3F3F3F3F3F3F0D0A005354419B
:1000F0005455535F434F4D504C4554450D0A0053E2
:1001000054415455535F4F434355504945440D0A9C
:10011000005354415455535F465245450D0A005211
:10012000464D313220525820537461747573203A11
:100130000D0A0041565220696E697420636F6D701C
:100140006C6574650D0A000011241FBECFEFD4E06A
:10015000DEBFCDBF11E0A0E0B1E0EEEFF9E002C0FC
:1001600005900D92A634B107D9F711E0A6E4B1E0ED
:1001700001C01D92A73FB107E1F70E946D020C94E8
:10018000FD040C9400001F920F920FB60F921124E1
:100190002F933F938F939F93EF93FF932091780139
:1001A0003091790180917A0190917B01281B390B64
:1001B00037FF02C02E5C3F4F21333105F4F4E0914C
:1001C0007801F09179018091C60080838091780157
:1001D00090917901019690937901809378018091B3
:1001E00078019091790121E08837920741F4C29714
:1001F000909379018093780102C08091C600FF91AD
:10020000EF919F918F913F912F910F900FBE0F9083
:100210001F9018951092C5008CE08093C40088E967
:100220008093C10086E08093C20080E88093C00084
:1002300086E491E090937B0180937A0180917A012A
:1002400090917B0190937901809378010895982F84
:100250008091C00085FFFCCF9093C6000895FC01FB
:1002600007C08091C00085FFFCCF31969093C600F7
:1002700090819923B1F70895FC0107C08091C000D7
:1002800085FFFCCF9093C600319694919923B1F7E6
:100290000895AF92BF92CF92DF92EF92FF920F93A9
:1002A0001F93DF93CF93CDB7DEB765970FB6F89462
:1002B000DEBF0FBECDBF7C018B01DE011596E0E0F5
:1002C000F1E081E101900D928150E1F780911101FF
:1002D00090911201A0911301B091140189839A8326
:1002E000AB83BC8385E0C82ED12CCC0EDD1E5E0115
:1002F0000894A11CB11C14C0F70191917F01892FB2
:1003000082958F70F601E80FF11D808189839F70BF
:10031000F601E90FF11D80818A83C5010E942F013A
:1003200001501040FFEF0F3F1F0731F765960FB6E2
:10033000F894DEBF0FBECDBFCF91DF911F910F911B
:10034000FF90EF90DF90CF90BF90AF900895FC01A9
:100350002EE213C09081892F8052813638F480912B
:10036000C00085FFFCCF9093C60006C08091C000FE
:1003700085FFFCCF2093C6003196615070408FEF0F
:100380006F3F780739F70895DF92EF92FF920F934E
:100390001F93CF93DF938C017B0118C0C80160E1EC
:1003A00070E00E94490185E790E00E943C01C8018D
:1003B00060E170E00E94A70182E790E00E943C01AA
:1003C00080EF9FEFE80EF91E005F1F4F91E1E916E5
:1003D000F10424F7C801B7010E944901DD24C0E1FE
:1003E000D0E0CE19DF0905C08EE690E00E943C0106
:1003F000D3948D2D90E08C179D07B4F38BE690E09D
:100400000E943C01C801B7010E94A70188E690E064
:100410000E943C01DF91CF911F910F91FF90EF90CF
:10042000DF900895209178013091790180917A01CF
:1004300090917B0128173907A9F3E0917A01F09197
:100440007B01E08180917A0190917B0101969093EC
:100450007B0180937A0180917A0190917B0121E068
:100460008837920729F4C29790937B0180937A0191
:100470008E2F0895DC0120917801309179018091CF
:100480007A0190917B012817390711F480E00895D3
:10049000E0917A01F0917B0180818C9380917A01C7
:1004A00090917B01019690937B0180937A018091DA
:1004B0007A0190917B0121E08837920711F081E069
:1004C0000895C29790937B0180937A0181E008950B
:1004D00010927C0110927D010895EF92FF920F938C
:1004E0001F93DF93CF93CDB7DEB72D970FB6F89458
:1004F000DEBF0FBECDBF8FEF9FEF28EC30E0F901DC
:100500003197F1F70197D9F7DE011196E5E1F1E0B6
:100510008DE001900D928150E1F70E9417040E9436
:100520000A01399A389A419A409A84EC99E028EC69
:1005300030E0F9013197F1F70197D9F741984098E8
:1005400083E391E00E943C017E010894E11CF11CD0
:1005500008EC10E08FE191E00E943C01E0918601FF
:10056000F0918701E081E13041F0E13018F0E230B4
:1005700051F406C081E191E008C08FEF90E005C022
:100580008DEE90E002C089ED90E00E943C0185EC88
:1005900090E00E943C018DE06EEEA7010E946F0486
:1005A000833039F0803841F0823049F484EB90E0B8
:1005B00008C080EA90E005C08CE890E002C088E7BF
:1005C00090E00E943C010E949704419A409A84EC7A
:1005D00099E0F8013197F1F70197D9F740984198E0
:1005E00084EC99E0F8013197F1F70197D9F7B2CF90
:1005F0005F989EBD0DB407FEFDCF8EBD0DB407FE06
:10060000FDCF5F9A08955F989EBD0DB407FEFDCFA4
:100610003EB58EBD0DB407FEFDCF2EB5932F80E005
:100620005F9A30E0282B392BC90108955F981EBCD2
:100630000DB407FEFDCF5F9A8EB508955F988EBD0D
:100640000DB407FEFDCF6EBD0DB407FEFDCF5F9A62
:1006500008955F9880EB8EBD0DB407FEFDCF1EBCE4
:100660000DB407FEFDCF5F9A8EB50895239A259AA3
:10067000229A249881E58CBD089578941F920F9258
:100680000FB60F9211241F932F933F934F935F93B5
:100690006F937F938F939F93AF93BF93EF93FF934A
:1006A000E8980E94160387FF82C080918001813004
:1006B000F1F0813020F0823009F06FC054C011E0B9
:1006C000109383010E942903982F80937F019D5FDF
:1006D000909382019350E0918401F0918501808193
:1006E000882309F05AC010938001918360C09091D3
:1006F0008301809182019817E0F40E942903909170
:100700007F01982790937F0120918301233238F451
:10071000E0918401F0918501E20FF11D81838091C8
:100720008301823011F49F3FC1F58F5F8093830175
:100730003EC0E0918401F091850182E08083809148
:10074000880190E0019681709070282F8093880135
:1007500084E2289F9001112426573E4F3093850153
:10076000209384011AC0909183018091820198178F
:1007700050F4E92FF0E0EE52FE4F60819F5F9093BE
:10078000830188EB12C01092810181E892E80E94F7
:10079000F80288EB6AEA0E941E03109280018AEC3C
:1007A00061E80E941E038AEC63E80E941E03E89A37
:1007B000FF91EF91BF91AF919F918F917F916F9139
:1007C0005F914F913F912F911F910F900FBE0F900E
:1007D0001F901895982F80918101882311F083E054
:1007E00008956093D4019093D50169276095609333
:1007F000D60181E08093810180E80895E09186012F
:10080000F091870110828091890190E001968170BA
:100810009070282F8093890184E2289F90011124F1
:1008200026573E4F309387012093860108955F9AA3
:10083000579A0E94360387EE90E80E94F80281E002
:1008400092E80E94F80280E496EA0E94F80281E1B0
:1008500096EC0E94F8028CE294E90E94F8028BEA7E
:1008600092EC0E94F80281E89AEC0E94F80287EF6D
:1008700094EC0E94F80280E798E90E94F80280E078
:1008800098EC0E94F80280E090EE0E94F8028DE25F
:100890008093D20184ED8093D3018AE891E0909314
:1008A000870180938601909385018093840181E87C
:1008B00092E80E94F802E9E6F0E08081826080839D
:1008C00080E090E00E940303E09A81E89AEC0E94A5
:1008D000F80283E89AEC0E94F802E89A0895EF92F1
:1008E000FF920F931F93182FE62E042FF52E82E20E
:1008F00091E00E942F01113210F082E013C080912C
:100900008101882311F083E00DC027ED31E0C9019A
:10091000602F7F2D412F50E00E94F4048E2D612F17
:100920000E94EA031F910F91FF90EF9008951F938B
:100930001091800180917E018117D1F083E391E0D5
:100940000E942F01113039F0113018F0123039F4B3
:1009500004C089E605C082E703C084E701C08FE3D5
:100960000E94270181E491E00E942F0110937E01F3
:10097000809180018823B1F5E89880E090E00E94A2
:100980000303E89A90FF04C088EC809344012AC0D6
:1009900080914401815080934401882319F581E0BE
:1009A00080934401809181018130E1F4E89881E0F5
:1009B00092E80E94F8028091D4018A5F80938201BC
:1009C0001092830182E0809380018AEA98EB0E9472
:1009D000F8028AEA98EB0E94F80281E292E80E940B
:1009E000F802E89A1F910895FB01DC0102C0019012
:0E09F0000D9241505040D8F70895F894FFCF73
:1009FE003031323334353637383941424344454647
:100A0E00005858200048656C6C6F576F726C640DFF
:100A1E000A0073656E64696E67207061636B65743E
:100A2E000D0A006D6F6465206368616E67653A201C
:060A3E00000D0A0010008B
:00000001FF
