:100000000C943C000C940D030C9459000C94590072
:100010000C9459000C9459000C9459000C945900FC
:100020000C9459000C9459000C9459000C945900EC
:100030000C9459000C9459000C9459000C945900DC
:100040000C9409020C9459000C945B000C94590018
:100050000C9459000C9459000C9459000C945900BC
:100060000C9459000C9459000D0A00202000202007
:1000700020000D0A0020200011241FBECFEFD4E085
:10008000DEBFCDBF11E0A0E0B1E0E4E4F9E002C0E2
:1000900005900D92A631B107D9F711E0A6E1B1E0C4
:1000A00001C01D92A63CB107E1F70E9417020C9413
:1000B000A0040C9400001F920F920FB60F9211240F
:1000C0002F933F938F939F93EF93FF93209148013A
:1000D0003091490180914A0190914B01281B390BC5
:1000E00037FF02C02E5C3F4F21333105F4F4E0911D
:1000F0004801F09149018091C600808380914801B8
:100100009091490101969093490180934801809113
:1001100048019091490121E08834920741F4C29747
:10012000909349018093480102C08091C600FF91DD
:10013000EF919F918F913F912F910F900FBE0F9054
:100140001F9018951092C5008CE08093C40088E938
:100150008093C10086E08093C20080E88093C00055
:1001600086E191E090934B0180934A0180914A018E
:1001700090914B0190934901809348010895982FE5
:100180008091C00085FFFCCF9093C6000895FC01CC
:1001900007C08091C00085FFFCCF31969093C600C8
:1001A00090819923B1F70895FC0107C08091C000A8
:1001B00085FFFCCF9093C600319694919923B1F7B7
:1001C0000895AF92BF92CF92DF92EF92FF920F937A
:1001D0001F93DF93CF93CDB7DEB765970FB6F89433
:1001E000DEBF0FBECDBF7C018B01DE011596E0E0C6
:1001F000F1E081E101900D928150E1F780911101D0
:1002000090911201A0911301B091140189839A83F6
:10021000AB83BC8385E0C82ED12CCC0EDD1E5E01E5
:100220000894A11CB11C14C0F70191917F01892F82
:1002300082958F70F601E80FF11D808189839F7090
:10024000F601E90FF11D80818A83C5010E94C70074
:1002500001501040FFEF0F3F1F0731F765960FB6B3
:10026000F894DEBF0FBECDBFCF91DF911F910F91EC
:10027000FF90EF90DF90CF90BF90AF900895FC017A
:100280002EE213C09081892F8052813638F48091FC
:10029000C00085FFFCCF9093C60006C08091C000CF
:1002A00085FFFCCF2093C6003196615070408FEFE0
:1002B0006F3F780739F70895DF92EF92FF920F931F
:1002C0001F93CF93DF938C017B0118C0C80160E1BD
:1002D00070E00E94E10085E790E00E94D400C80130
:1002E00060E170E00E943F0182E790E00E94D4004C
:1002F00080EF9FEFE80EF91E005F1F4F91E1E916B6
:10030000F10424F7C801B7010E94E100DD24C0E137
:10031000D0E0CE19DF0905C08EE690E00E94D4003F
:10032000D3948D2D90E08C179D07B4F38BE690E06D
:100330000E94D400C801B7010E943F0188E690E006
:100340000E94D400DF91CF911F910F91FF90EF9009
:10035000DF900895209148013091490180914A0130
:1003600090914B0128173907A9F3E0914A01F091C8
:100370004B01E08180914A0190914B01019690934D
:100380004B0180934A0180914A0190914B0121E0F9
:100390008834920729F4C29790934B0180934A01C5
:1003A0008E2F0895DC012091480130914901809100
:1003B0004A0190914B012817390711F480E0089504
:1003C000E0914A01F0914B0180818C9380914A0128
:1003D00090914B01019690934B0180934A0180913B
:1003E0004A0190914B0121E08834920711F081E09D
:1003F0000895C29790934B0180934A0181E008953C
:1004000085B5856085BDEEE6F0E080818160808302
:1004100008951F920F920FB60F92112410924C0163
:1004200010924D010F900FBE0F901F9018957F9264
:100430008F929F92AF92BF92CF92DF92EF92FF92F4
:100440000F931F93DF93CF93CDB7DEB7C150D14049
:100450000FB6F894DEBF0FBECDBF0E94A2000E946F
:10046000220485B5856085BD80916E008160809392
:100470006E007894399A389A419A84EC99E028EC85
:1004800030E0F9013197F1F70197D9F7409A84EC00
:1004900099E028EC30E0F9013197F1F70197D9F7AD
:1004A00084EC99E028EC30E0F9013197F1F70197FD
:1004B000D9F7409884EC99E028EC30E0F9013197C5
:1004C000F1F70197D9F741987724739422E0A22E8F
:1004D000B12CAC0EBD1E92E0E92E4E010894811C99
:1004E000911CE0915501F091560180818230F1F428
:1004F00084E0C82ED12CCE0EDF1E0181802F0E94F9
:10050000BF00FF2409C016BCF60111916F01812FB5
:100510000E94BF00F12601500023A9F788B187256A
:1005200088B98F2D0E94BF000E94090490914C0150
:10053000992391F080914D01981771F4892F60E013
:10054000A5010E947A04803839F488B18E2588B9D3
:1005500010924D0110924C01C4010E94D201181654
:10056000A4F416BC80914C019981882329F49093BE
:100570004C0110924D0109C080914D01F501E80F29
:10058000F11D90838F5F80934D010E94BA03A9CF24
:100590005F989EBD0DB407FEFDCF8EBD0DB407FE66
:1005A000FDCF5F9A08955F989EBD0DB407FEFDCF05
:1005B0003EB58EBD0DB407FEFDCF2EB5932F80E066
:1005C0005F9A30E0282B392BC90108955F981EBC33
:1005D0000DB407FEFDCF5F9A8EB508955F988EBD6E
:1005E0000DB407FEFDCF6EBD0DB407FEFDCF5F9AC3
:1005F00008955F9880EB8EBD0DB407FEFDCF1EBC45
:100600000DB407FEFDCF5F9A8EB50895239A259A03
:10061000229A249881E58CBD089578941F920F92B8
:100620000FB60F9211241F932F933F934F935F9315
:100630006F937F938F939F93AF93BF93EF93FF93AA
:10064000E8980E94E60287FF82C080914F018130C6
:10065000F1F0813020F0823009F06FC054C011E019
:10066000109352010E94F902982F80934E019D5FD2
:10067000909351019350E0915301F0915401808186
:10068000882309F05AC010934F01918360C0909164
:100690005201809151019817E0F40E94F902909163
:1006A0004E01982790934E0120915201233238F445
:1006B000E0915301F0915401E20FF11D818380918B
:1006C0005201823011F49F3FC1F58F5F8093520138
:1006D0003EC0E0915301F091540182E0808380910B
:1006E000570190E0019681709070282F80935701F8
:1006F00084E2289F90011124275A3E4F30935401E1
:10070000209353011AC09091520180915101981782
:1007100050F4E92FF0E0EF55FE4F60819F5F90931A
:10072000520188EB12C01092500181E892E80E94B9
:10073000C80288EB6AEA0E94EE0210924F018AEC2E
:1007400061E80E94EE028AEC63E80E94EE02E89AF9
:10075000FF91EF91BF91AF919F918F917F916F9199
:100760005F914F913F912F911F910F900FBE0F906E
:100770001F90189580914F018823B1F5E89880E08B
:1007800090E00E94D302E89A90FF04C088EC809326
:1007900015010895809115018150809315018823DA
:1007A00019F581E080931501809150018130E1F4C9
:1007B000E89881E092E80E94C8028091A3018A5FD4
:1007C000809351011092520182E080934F018AEA96
:1007D00098EB0E94C8028AEA98EB0E94C80281E264
:1007E00092E80E94C802E89A0895982F80915001DB
:1007F000882311F083E008956093A3019093A401EE
:10080000692760956093A50181E08093500180E89D
:100810000895E0915501F0915601108280915801A0
:1008200090E0019681709070282F8093580184E2A7
:10083000289F90011124275A3E4F30935601209350
:10084000550108955F9A579A0E94060387EE90E833
:100850000E94C80281E092E80E94C80280E496EA01
:100860000E94C80281E196EC0E94C8028CE294E9E1
:100870000E94C8028BEA92EC0E94C80281E89AECBE
:100880000E94C80287EF94EC0E94C80280E798E9B2
:100890000E94C80280E098EC0E94C80280E090EEBE
:1008A0000E94C8028DE28093A10184ED8093A20191
:1008B00089E591E0909356018093550190935401FE
:1008C0008093530181E892E80E94C802E9E6F0E0D3
:1008D00080818260808380E090E00E94D302E09A71
:1008E00081E89AEC0E94C80283E89AEC0E94C80250
:1008F000E89A08950F931F93182F062F813210F056
:1009000082E012C080915001882311F083E00CC076
:1009100026EA31E0C901BA01412F50E00E94970454
:10092000802F612F0E94F5031F910F910895FB0105
:10093000DC0102C001900D9241505040D8F708955B
:04094000F894FFCF59
:100944003031323334353637383941424344454601
:06095400005858200010BD
:00000001FF
